{
  "contractName": "OwnerManagement",
  "abi": [
    {
      "inputs": [],
      "stateMutability": "nonpayable",
      "type": "constructor"
    },
    {
      "anonymous": false,
      "inputs": [
        {
          "indexed": true,
          "internalType": "address",
          "name": "newOwner",
          "type": "address"
        }
      ],
      "name": "OwnerAdded",
      "type": "event"
    },
    {
      "anonymous": false,
      "inputs": [
        {
          "indexed": true,
          "internalType": "address",
          "name": "removedOwner",
          "type": "address"
        }
      ],
      "name": "OwnerRemoved",
      "type": "event"
    },
    {
      "inputs": [
        {
          "internalType": "address",
          "name": "_validate",
          "type": "address"
        }
      ],
      "name": "isOwner",
      "outputs": [
        {
          "internalType": "bool",
          "name": "",
          "type": "bool"
        }
      ],
      "stateMutability": "view",
      "type": "function"
    },
    {
      "inputs": [
        {
          "internalType": "address",
          "name": "_newOwner",
          "type": "address"
        }
      ],
      "name": "addNewOwner",
      "outputs": [],
      "stateMutability": "nonpayable",
      "type": "function"
    },
    {
      "inputs": [
        {
          "internalType": "address",
          "name": "_ownerToRemove",
          "type": "address"
        }
      ],
      "name": "removeOwner",
      "outputs": [],
      "stateMutability": "nonpayable",
      "type": "function"
    },
    {
      "inputs": [],
      "name": "getOwners",
      "outputs": [
        {
          "internalType": "address[]",
          "name": "",
          "type": "address[]"
        }
      ],
      "stateMutability": "view",
      "type": "function"
    }
  ],
  "bytecode": "0x608060405233600160006101000a81548173ffffffffffffffffffffffffffffffffffffffff021916908373ffffffffffffffffffffffffffffffffffffffff16021790555034801561005157600080fd5b506100613361006660201b60201c565b61010f565b6000819080600181540180825580915050600190039060005260206000200160009091909190916101000a81548173ffffffffffffffffffffffffffffffffffffffff021916908373ffffffffffffffffffffffffffffffffffffffff1602179055508073ffffffffffffffffffffffffffffffffffffffff167f994a936646fe87ffe4f1e469d3d6aa417d6b855598397f323de5b449f765f0c360405160405180910390a250565b61087f8061011e6000396000f3fe608060405234801561001057600080fd5b506004361061004c5760003560e01c8063114d8be114610051578063173825d91461006d5780632f54bf6e14610089578063a0e67e2b146100b9575b600080fd5b61006b600480360381019061006691906105f3565b6100d7565b005b610087600480360381019061008291906105f3565b610110565b005b6100a3600480360381019061009e91906105f3565b6101e9565b6040516100b0919061063b565b60405180910390f35b6100c1610297565b6040516100ce9190610714565b60405180910390f35b336100e1816101e9565b6100ea57600080fd5b600015156100f7836101e9565b15151461010357600080fd5b61010c82610325565b5050565b3361011a816101e9565b61012357600080fd5b600160009054906101000a900473ffffffffffffffffffffffffffffffffffffffff1673ffffffffffffffffffffffffffffffffffffffff168273ffffffffffffffffffffffffffffffffffffffff160361017d57600080fd5b6000610188836103ce565b9050600081121561019857600080fd5b6101a18161049a565b8273ffffffffffffffffffffffffffffffffffffffff167f58619076adf5bb0943d100ef88d52d7c3fd691b19d3a9071b555b651fbf418da60405160405180910390a2505050565b600080600090505b60008054905081101561028c578273ffffffffffffffffffffffffffffffffffffffff166000828154811061022957610228610736565b5b9060005260206000200160009054906101000a900473ffffffffffffffffffffffffffffffffffffffff1673ffffffffffffffffffffffffffffffffffffffff1603610279576001915050610292565b80806102849061079e565b9150506101f1565b50600090505b919050565b6060600080548060200260200160405190810160405280929190818152602001828054801561031b57602002820191906000526020600020905b8160009054906101000a900473ffffffffffffffffffffffffffffffffffffffff1673ffffffffffffffffffffffffffffffffffffffff16815260200190600101908083116102d1575b5050505050905090565b6000819080600181540180825580915050600190039060005260206000200160009091909190916101000a81548173ffffffffffffffffffffffffffffffffffffffff021916908373ffffffffffffffffffffffffffffffffffffffff1602179055508073ffffffffffffffffffffffffffffffffffffffff167f994a936646fe87ffe4f1e469d3d6aa417d6b855598397f323de5b449f765f0c360405160405180910390a250565b600080600090505b600080549050811015610470578273ffffffffffffffffffffffffffffffffffffffff166000828154811061040e5761040d610736565b5b9060005260206000200160009054906101000a900473ffffffffffffffffffffffffffffffffffffffff1673ffffffffffffffffffffffffffffffffffffffff160361045d5780915050610495565b80806104689061079e565b9150506103d6565b507fffffffffffffffffffffffffffffffffffffffffffffffffffffffffffffffff90505b919050565b600060016000805490506104ae91906107e6565b815481106104bf576104be610736565b5b9060005260206000200160009054906101000a900473ffffffffffffffffffffffffffffffffffffffff16600082815481106104fe576104fd610736565b5b9060005260206000200160006101000a81548173ffffffffffffffffffffffffffffffffffffffff021916908373ffffffffffffffffffffffffffffffffffffffff16021790555060008054806105585761055761081a565b5b6001900381819060005260206000200160006101000a81549073ffffffffffffffffffffffffffffffffffffffff0219169055905550565b600080fd5b600073ffffffffffffffffffffffffffffffffffffffff82169050919050565b60006105c082610595565b9050919050565b6105d0816105b5565b81146105db57600080fd5b50565b6000813590506105ed816105c7565b92915050565b60006020828403121561060957610608610590565b5b6000610617848285016105de565b91505092915050565b60008115159050919050565b61063581610620565b82525050565b6000602082019050610650600083018461062c565b92915050565b600081519050919050565b600082825260208201905092915050565b6000819050602082019050919050565b61068b816105b5565b82525050565b600061069d8383610682565b60208301905092915050565b6000602082019050919050565b60006106c182610656565b6106cb8185610661565b93506106d683610672565b8060005b838110156107075781516106ee8882610691565b97506106f9836106a9565b9250506001810190506106da565b5085935050505092915050565b6000602082019050818103600083015261072e81846106b6565b905092915050565b7f4e487b7100000000000000000000000000000000000000000000000000000000600052603260045260246000fd5b7f4e487b7100000000000000000000000000000000000000000000000000000000600052601160045260246000fd5b6000819050919050565b60006107a982610794565b91507fffffffffffffffffffffffffffffffffffffffffffffffffffffffffffffffff82036107db576107da610765565b5b600182019050919050565b60006107f182610794565b91506107fc83610794565b92508282101561080f5761080e610765565b5b828203905092915050565b7f4e487b7100000000000000000000000000000000000000000000000000000000600052603160045260246000fdfea264697066735822122075ca4f9170fad2c379a06ef963fa14dcb12d2d3fcda396ff474b902017da6e4564736f6c634300080d0033",
  "immutableReferences": {},
  "source": "// SPDX-License-Identifier: UNLICENSED\r\npragma solidity >=0.4.22 <0.9.0;\r\n\r\ncontract OwnerManagement {\r\n    address[] private _owners;\r\n    address private creator = msg.sender;\r\n\r\n    //Owner Events\r\n\r\n    event OwnerAdded(\r\n        address indexed newOwner\r\n    );\r\n\r\n    event OwnerRemoved(\r\n        address indexed removedOwner\r\n    );\r\n\r\n    //Owner Modifiers\r\n\r\n    modifier onlyOwner(address _validate) {\r\n        require(isOwner(_validate));\r\n        _;\r\n    }\r\n\r\n    //Owner internal functions\r\n\r\n    function addOwner(address _newOwner) internal {\r\n        _owners.push(_newOwner);\r\n\r\n        emit OwnerAdded(_newOwner);\r\n    }\r\n\r\n    function removeOwner(int index) internal {\r\n        _owners[uint(index)] = _owners[_owners.length - 1];\r\n        _owners.pop();\r\n    }\r\n\r\n    constructor() {\r\n        addOwner(msg.sender);\r\n    }\r\n\r\n    function getOwnerIndex(address _owner) internal view returns(int) {\r\n        for (uint i = 0; i < _owners.length; i++) {\r\n            if (_owners[i] == _owner) {\r\n                return int(i);\r\n            }\r\n        }\r\n\r\n        return -1;\r\n    }\r\n\r\n    //Owner public functions\r\n\r\n    function isOwner(address _validate) public view returns(bool) {\r\n        for (uint i = 0; i < _owners.length; i++) {\r\n            if (_owners[i] == _validate) {\r\n                return true;\r\n            }\r\n        }\r\n\r\n        return false;\r\n    }\r\n\r\n    function addNewOwner(address _newOwner) public onlyOwner(msg.sender) {\r\n        //validate new owner isn't already one\r\n        require(isOwner(_newOwner) == false);\r\n\r\n        addOwner(_newOwner);\r\n    }\r\n\r\n    function removeOwner(address _ownerToRemove) public onlyOwner(msg.sender) {\r\n        require(_ownerToRemove != creator);\r\n        int index = getOwnerIndex(_ownerToRemove);\r\n        require(index >= 0);\r\n\r\n        removeOwner(index);\r\n        emit OwnerRemoved(_ownerToRemove);\r\n    }\r\n\r\n    function getOwners() public view returns(address [] memory) {\r\n        return _owners;\r\n    }\r\n\r\n}\r\n",
  "sourcePath": "C:\\Users\\x\\IdeaProjects\\Etherium_Rock_Paper_Scisor_Test\\contracts\\OwnerManagement.sol",
  "compiler": {
    "name": "solc",
    "version": "0.8.13+commit.abaa5c0e.Emscripten.clang"
  },
  "schemaVersion": "3.4.7",
  "updatedAt": "2022-05-19T02:48:54.039Z",
  "devdoc": {
    "kind": "dev",
    "methods": {},
    "version": 1
  },
  "userdoc": {
    "kind": "user",
    "methods": {},
    "version": 1
  }
}